{
  "contractName": "UmiTokenFarm",
  "abi": [
    {
      "inputs": [
        {
          "internalType": "address",
          "name": "_tokenAddress",
          "type": "address"
        },
        {
          "internalType": "uint256",
          "name": "_apy",
          "type": "uint256"
        }
      ],
      "stateMutability": "nonpayable",
      "type": "constructor"
    },
    {
      "anonymous": false,
      "inputs": [
        {
          "indexed": true,
          "internalType": "address",
          "name": "previousOwner",
          "type": "address"
        },
        {
          "indexed": true,
          "internalType": "address",
          "name": "newOwner",
          "type": "address"
        }
      ],
      "name": "OwnershipTransferred",
      "type": "event"
    },
    {
      "inputs": [],
      "name": "apy",
      "outputs": [
        {
          "internalType": "uint256",
          "name": "",
          "type": "uint256"
        }
      ],
      "stateMutability": "view",
      "type": "function",
      "constant": true
    },
    {
      "inputs": [
        {
          "internalType": "address",
          "name": "",
          "type": "address"
        },
        {
          "internalType": "uint256",
          "name": "",
          "type": "uint256"
        }
      ],
      "name": "balances",
      "outputs": [
        {
          "internalType": "uint256",
          "name": "",
          "type": "uint256"
        }
      ],
      "stateMutability": "view",
      "type": "function",
      "constant": true
    },
    {
      "inputs": [
        {
          "internalType": "address",
          "name": "",
          "type": "address"
        },
        {
          "internalType": "uint256",
          "name": "",
          "type": "uint256"
        }
      ],
      "name": "depositDates",
      "outputs": [
        {
          "internalType": "uint256",
          "name": "",
          "type": "uint256"
        }
      ],
      "stateMutability": "view",
      "type": "function",
      "constant": true
    },
    {
      "inputs": [
        {
          "internalType": "address",
          "name": "",
          "type": "address"
        }
      ],
      "name": "lastDepositIds",
      "outputs": [
        {
          "internalType": "uint256",
          "name": "",
          "type": "uint256"
        }
      ],
      "stateMutability": "view",
      "type": "function",
      "constant": true
    },
    {
      "inputs": [],
      "name": "owner",
      "outputs": [
        {
          "internalType": "address",
          "name": "",
          "type": "address"
        }
      ],
      "stateMutability": "view",
      "type": "function",
      "constant": true
    },
    {
      "inputs": [],
      "name": "renounceOwnership",
      "outputs": [],
      "stateMutability": "nonpayable",
      "type": "function"
    },
    {
      "inputs": [],
      "name": "totalStaked",
      "outputs": [
        {
          "internalType": "uint256",
          "name": "",
          "type": "uint256"
        }
      ],
      "stateMutability": "view",
      "type": "function",
      "constant": true
    },
    {
      "inputs": [
        {
          "internalType": "address",
          "name": "newOwner",
          "type": "address"
        }
      ],
      "name": "transferOwnership",
      "outputs": [],
      "stateMutability": "nonpayable",
      "type": "function"
    },
    {
      "inputs": [],
      "name": "umiToken",
      "outputs": [
        {
          "internalType": "contract ERC20",
          "name": "",
          "type": "address"
        }
      ],
      "stateMutability": "view",
      "type": "function",
      "constant": true
    },
    {
      "inputs": [
        {
          "internalType": "address",
          "name": "",
          "type": "address"
        },
        {
          "internalType": "uint256",
          "name": "",
          "type": "uint256"
        }
      ],
      "name": "withdrawalRequestsDates",
      "outputs": [
        {
          "internalType": "uint256",
          "name": "",
          "type": "uint256"
        }
      ],
      "stateMutability": "view",
      "type": "function",
      "constant": true
    },
    {
      "inputs": [],
      "name": "getUmiTokenAddress",
      "outputs": [
        {
          "internalType": "address",
          "name": "",
          "type": "address"
        }
      ],
      "stateMutability": "view",
      "type": "function",
      "constant": true
    },
    {
      "inputs": [],
      "name": "getUmiTokenName",
      "outputs": [
        {
          "internalType": "string",
          "name": "",
          "type": "string"
        }
      ],
      "stateMutability": "view",
      "type": "function",
      "constant": true
    },
    {
      "inputs": [],
      "name": "getUmiTokenSymbol",
      "outputs": [
        {
          "internalType": "string",
          "name": "",
          "type": "string"
        }
      ],
      "stateMutability": "view",
      "type": "function",
      "constant": true
    },
    {
      "inputs": [],
      "name": "getUmiTokenTotalSupply",
      "outputs": [
        {
          "internalType": "uint256",
          "name": "",
          "type": "uint256"
        }
      ],
      "stateMutability": "view",
      "type": "function",
      "constant": true
    },
    {
      "inputs": [],
      "name": "getApy",
      "outputs": [
        {
          "internalType": "uint256",
          "name": "",
          "type": "uint256"
        }
      ],
      "stateMutability": "view",
      "type": "function",
      "constant": true
    },
    {
      "inputs": [],
      "name": "setLastDepositIds",
      "outputs": [
        {
          "internalType": "uint256",
          "name": "",
          "type": "uint256"
        }
      ],
      "stateMutability": "nonpayable",
      "type": "function"
    },
    {
      "inputs": [
        {
          "internalType": "address",
          "name": "_address",
          "type": "address"
        }
      ],
      "name": "getLastDepositIds",
      "outputs": [
        {
          "internalType": "uint256",
          "name": "",
          "type": "uint256"
        }
      ],
      "stateMutability": "view",
      "type": "function",
      "constant": true
    },
    {
      "inputs": [
        {
          "internalType": "address",
          "name": "account",
          "type": "address"
        }
      ],
      "name": "getBalanceOfAccount",
      "outputs": [
        {
          "internalType": "uint256",
          "name": "",
          "type": "uint256"
        }
      ],
      "stateMutability": "view",
      "type": "function",
      "constant": true
    },
    {
      "inputs": [
        {
          "internalType": "uint256",
          "name": "_amount",
          "type": "uint256"
        }
      ],
      "name": "deposit",
      "outputs": [],
      "stateMutability": "nonpayable",
      "type": "function"
    },
    {
      "inputs": [
        {
          "internalType": "uint256",
          "name": "_depositId",
          "type": "uint256"
        },
        {
          "internalType": "uint256",
          "name": "_amount",
          "type": "uint256"
        }
      ],
      "name": "deposit",
      "outputs": [],
      "stateMutability": "nonpayable",
      "type": "function"
    },
    {
      "inputs": [],
      "name": "getContractBalance",
      "outputs": [
        {
          "internalType": "uint256",
          "name": "",
          "type": "uint256"
        }
      ],
      "stateMutability": "view",
      "type": "function",
      "constant": true
    },
    {
      "inputs": [],
      "name": "getTotalStaked",
      "outputs": [
        {
          "internalType": "uint256",
          "name": "",
          "type": "uint256"
        }
      ],
      "stateMutability": "view",
      "type": "function",
      "constant": true
    },
    {
      "inputs": [
        {
          "internalType": "address",
          "name": "spender",
          "type": "address"
        },
        {
          "internalType": "uint256",
          "name": "_amount",
          "type": "uint256"
        }
      ],
      "name": "approve",
      "outputs": [],
      "stateMutability": "nonpayable",
      "type": "function"
    }
  ],
  "bytecode": "0x608060405267016345785d8a00006008553480156200001d57600080fd5b5060405162001d2838038062001d28833981810160405281019062000043919062000201565b600062000055620001b860201b60201c565b9050806000806101000a81548173ffffffffffffffffffffffffffffffffffffffff021916908373ffffffffffffffffffffffffffffffffffffffff1602179055508073ffffffffffffffffffffffffffffffffffffffff16600073ffffffffffffffffffffffffffffffffffffffff167f8be0079c531659141344cd1fd0a4f28419497f9722a3daafe3b4186f6b6457e060405160405180910390a35060018081905550620001268273ffffffffffffffffffffffffffffffffffffffff16620001c060201b62000e661760201c565b62000168576040517f08c379a00000000000000000000000000000000000000000000000000000000081526004016200015f9062000269565b60405180910390fd5b81600260006101000a81548173ffffffffffffffffffffffffffffffffffffffff021916908373ffffffffffffffffffffffffffffffffffffffff1602179055508060088190555050506200035d565b600033905090565b600080823b905060008111915050919050565b600081519050620001e48162000329565b92915050565b600081519050620001fb8162000343565b92915050565b600080604083850312156200021557600080fd5b60006200022585828601620001d3565b92505060206200023885828601620001ea565b9150509250929050565b6000620002516027836200028b565b91506200025e82620002da565b604082019050919050565b60006020820190508181036000830152620002848162000242565b9050919050565b600082825260208201905092915050565b6000620002a982620002b0565b9050919050565b600073ffffffffffffffffffffffffffffffffffffffff82169050919050565b6000819050919050565b7f5f746f6b656e41646472657373206973206e6f74206120636f6e74726163742060008201527f6164647265737300000000000000000000000000000000000000000000000000602082015250565b62000334816200029c565b81146200034057600080fd5b50565b6200034e81620002d0565b81146200035a57600080fd5b50565b6119bb806200036d6000396000f3fe608060405234801561001057600080fd5b506004361061014d5760003560e01c80638b53ccb3116100c3578063c3bd8fd01161007c578063c3bd8fd01461036e578063cbf1304d1461039e578063e0648a28146103ce578063e2bbb158146103fe578063f2fde38b1461041a578063f686f76d146104365761014d565b80638b53ccb3146102865780638da5cb5b146102b6578063936710bf146102d4578063b5a7113a14610304578063b6b55f2514610322578063c03014261461033e5761014d565b80633bcfc4b8116101155780633bcfc4b8146101e657806344de4f84146102045780636ab74eb1146102225780636f9fb98a14610240578063715018a61461025e578063817b1cd2146102685761014d565b80630917e77614610152578063095ea7b3146101705780631fb922e01461018c578063231c4b30146101aa578063382212b0146101c8575b600080fd5b61015a610454565b6040516101679190611539565b60405180910390f35b61018a60048036038101906101859190611155565b61045e565b005b610194610512565b6040516101a19190611539565b60405180910390f35b6101b261052f565b6040516101bf9190611457565b60405180910390f35b6101d06105db565b6040516101dd9190611539565b60405180910390f35b6101ee610682565b6040516101fb9190611539565b60405180910390f35b61020c610688565b6040516102199190611457565b60405180910390f35b61022a610734565b6040516102379190611539565b60405180910390f35b61024861078d565b6040516102559190611539565b60405180910390f35b610266610795565b005b6102706108cf565b60405161027d9190611539565b60405180910390f35b6102a0600480360381019061029b9190611155565b6108d5565b6040516102ad9190611539565b60405180910390f35b6102be6108fa565b6040516102cb91906113c1565b60405180910390f35b6102ee60048036038101906102e9919061112c565b610923565b6040516102fb9190611539565b60405180910390f35b61030c6109d7565b60405161031991906113c1565b60405180910390f35b61033c600480360381019061033791906111fb565b610a01565b005b6103586004803603810190610353919061112c565b610a5f565b6040516103659190611539565b60405180910390f35b6103886004803603810190610383919061112c565b610aa8565b6040516103959190611539565b60405180910390f35b6103b860048036038101906103b39190611155565b610ac0565b6040516103c59190611539565b60405180910390f35b6103e860048036038101906103e39190611155565b610ae5565b6040516103f59190611539565b60405180910390f35b6104186004803603810190610413919061124d565b610b0a565b005b610434600480360381019061042f919061112c565b610c97565b005b61043e610e40565b60405161044b919061143c565b60405180910390f35b6000600754905090565b600260009054906101000a900473ffffffffffffffffffffffffffffffffffffffff1673ffffffffffffffffffffffffffffffffffffffff1663095ea7b383836040518363ffffffff1660e01b81526004016104bb929190611413565b602060405180830381600087803b1580156104d557600080fd5b505af11580156104e9573d6000803e3d6000fd5b505050506040513d601f19601f8201168201806040525081019061050d9190611191565b505050565b600067016345785d8a000060085461052a919061161c565b905090565b6060600260009054906101000a900473ffffffffffffffffffffffffffffffffffffffff1673ffffffffffffffffffffffffffffffffffffffff166306fdde036040518163ffffffff1660e01b815260040160006040518083038186803b15801561059957600080fd5b505afa1580156105ad573d6000803e3d6000fd5b505050506040513d6000823e3d601f19601f820116820180604052508101906105d691906111ba565b905090565b6000600260009054906101000a900473ffffffffffffffffffffffffffffffffffffffff1673ffffffffffffffffffffffffffffffffffffffff166318160ddd6040518163ffffffff1660e01b815260040160206040518083038186803b15801561064557600080fd5b505afa158015610659573d6000803e3d6000fd5b505050506040513d601f19601f8201168201806040525081019061067d9190611224565b905090565b60085481565b6060600260009054906101000a900473ffffffffffffffffffffffffffffffffffffffff1673ffffffffffffffffffffffffffffffffffffffff166395d89b416040518163ffffffff1660e01b815260040160006040518083038186803b1580156106f257600080fd5b505afa158015610706573d6000803e3d6000fd5b505050506040513d6000823e3d601f19601f8201168201806040525081019061072f91906111ba565b905090565b6000600660003373ffffffffffffffffffffffffffffffffffffffff1673ffffffffffffffffffffffffffffffffffffffff1681526020019081526020016000206000815461078290611746565b919050819055905090565b600047905090565b61079d610e79565b73ffffffffffffffffffffffffffffffffffffffff166107bb6108fa565b73ffffffffffffffffffffffffffffffffffffffff1614610811576040517f08c379a0000000000000000000000000000000000000000000000000000000008152600401610808906114b9565b60405180910390fd5b600073ffffffffffffffffffffffffffffffffffffffff1660008054906101000a900473ffffffffffffffffffffffffffffffffffffffff1673ffffffffffffffffffffffffffffffffffffffff167f8be0079c531659141344cd1fd0a4f28419497f9722a3daafe3b4186f6b6457e060405160405180910390a360008060006101000a81548173ffffffffffffffffffffffffffffffffffffffff021916908373ffffffffffffffffffffffffffffffffffffffff160217905550565b60075481565b6004602052816000526040600020602052806000526040600020600091509150505481565b60008060009054906101000a900473ffffffffffffffffffffffffffffffffffffffff16905090565b6000600260009054906101000a900473ffffffffffffffffffffffffffffffffffffffff1673ffffffffffffffffffffffffffffffffffffffff166370a08231836040518263ffffffff1660e01b815260040161098091906113c1565b60206040518083038186803b15801561099857600080fd5b505afa1580156109ac573d6000803e3d6000fd5b505050506040513d601f19601f820116820180604052508101906109d09190611224565b9050919050565b6000600260009054906101000a900473ffffffffffffffffffffffffffffffffffffffff16905090565b610a5c600660003373ffffffffffffffffffffffffffffffffffffffff1673ffffffffffffffffffffffffffffffffffffffff16815260200190815260200160002060008154610a5090611746565b91905081905582610b0a565b50565b6000600660008373ffffffffffffffffffffffffffffffffffffffff1673ffffffffffffffffffffffffffffffffffffffff168152602001908152602001600020549050919050565b60066020528060005260406000206000915090505481565b6003602052816000526040600020602052806000526040600020600091509150505481565b6005602052816000526040600020602052806000526040600020600091509150505481565b600082118015610b595750600660003373ffffffffffffffffffffffffffffffffffffffff1673ffffffffffffffffffffffffffffffffffffffff168152602001908152602001600020548211155b610b98576040517f08c379a0000000000000000000000000000000000000000000000000000000008152600401610b8f906114f9565b60405180910390fd5b610ba3338383610e81565b600260009054906101000a900473ffffffffffffffffffffffffffffffffffffffff1673ffffffffffffffffffffffffffffffffffffffff166323b872dd3330846040518463ffffffff1660e01b8152600401610c02939291906113dc565b602060405180830381600087803b158015610c1c57600080fd5b505af1158015610c30573d6000803e3d6000fd5b505050506040513d601f19601f82011682018060405250810190610c549190611191565b610c93576040517f08c379a0000000000000000000000000000000000000000000000000000000008152600401610c8a906114d9565b60405180910390fd5b5050565b610c9f610e79565b73ffffffffffffffffffffffffffffffffffffffff16610cbd6108fa565b73ffffffffffffffffffffffffffffffffffffffff1614610d13576040517f08c379a0000000000000000000000000000000000000000000000000000000008152600401610d0a906114b9565b60405180910390fd5b600073ffffffffffffffffffffffffffffffffffffffff168173ffffffffffffffffffffffffffffffffffffffff161415610d83576040517f08c379a0000000000000000000000000000000000000000000000000000000008152600401610d7a90611479565b60405180910390fd5b8073ffffffffffffffffffffffffffffffffffffffff1660008054906101000a900473ffffffffffffffffffffffffffffffffffffffff1673ffffffffffffffffffffffffffffffffffffffff167f8be0079c531659141344cd1fd0a4f28419497f9722a3daafe3b4186f6b6457e060405160405180910390a3806000806101000a81548173ffffffffffffffffffffffffffffffffffffffff021916908373ffffffffffffffffffffffffffffffffffffffff16021790555050565b600260009054906101000a900473ffffffffffffffffffffffffffffffffffffffff1681565b600080823b905060008111915050919050565b600033905090565b60026001541415610ec7576040517f08c379a0000000000000000000000000000000000000000000000000000000008152600401610ebe90611519565b60405180910390fd5b600260018190555060008111610f12576040517f08c379a0000000000000000000000000000000000000000000000000000000008152600401610f0990611499565b60405180910390fd5b6000610f7782600360008773ffffffffffffffffffffffffffffffffffffffff1673ffffffffffffffffffffffffffffffffffffffff16815260200190815260200160002060008681526020019081526020016000205461105290919063ffffffff16565b905080600360008673ffffffffffffffffffffffffffffffffffffffff1673ffffffffffffffffffffffffffffffffffffffff168152602001908152602001600020600085815260200190815260200160002081905550610fe38260075461105290919063ffffffff16565b600781905550610ff1611068565b600460008673ffffffffffffffffffffffffffffffffffffffff1673ffffffffffffffffffffffffffffffffffffffff1681526020019081526020016000206000858152602001908152602001600020819055505060018081905550505050565b6000818361106091906115c6565b905092915050565b600042905090565b600061108361107e84611579565b611554565b90508281526020810184848401111561109b57600080fd5b6110a68482856116e2565b509392505050565b6000813590506110bd81611940565b92915050565b6000815190506110d281611957565b92915050565b600082601f8301126110e957600080fd5b81516110f9848260208601611070565b91505092915050565b6000813590506111118161196e565b92915050565b6000815190506111268161196e565b92915050565b60006020828403121561113e57600080fd5b600061114c848285016110ae565b91505092915050565b6000806040838503121561116857600080fd5b6000611176858286016110ae565b925050602061118785828601611102565b9150509250929050565b6000602082840312156111a357600080fd5b60006111b1848285016110c3565b91505092915050565b6000602082840312156111cc57600080fd5b600082015167ffffffffffffffff8111156111e657600080fd5b6111f2848285016110d8565b91505092915050565b60006020828403121561120d57600080fd5b600061121b84828501611102565b91505092915050565b60006020828403121561123657600080fd5b600061124484828501611117565b91505092915050565b6000806040838503121561126057600080fd5b600061126e85828601611102565b925050602061127f85828601611102565b9150509250929050565b61129281611676565b82525050565b6112a1816116be565b82525050565b60006112b2826115aa565b6112bc81856115b5565b93506112cc8185602086016116e2565b6112d5816117ed565b840191505092915050565b60006112ed6026836115b5565b91506112f8826117fe565b604082019050919050565b60006113106024836115b5565b915061131b8261184d565b604082019050919050565b60006113336020836115b5565b915061133e8261189c565b602082019050919050565b6000611356600f836115b5565b9150611361826118c5565b602082019050919050565b60006113796010836115b5565b9150611384826118ee565b602082019050919050565b600061139c601f836115b5565b91506113a782611917565b602082019050919050565b6113bb816116b4565b82525050565b60006020820190506113d66000830184611289565b92915050565b60006060820190506113f16000830186611289565b6113fe6020830185611289565b61140b60408301846113b2565b949350505050565b60006040820190506114286000830185611289565b61143560208301846113b2565b9392505050565b60006020820190506114516000830184611298565b92915050565b6000602082019050818103600083015261147181846112a7565b905092915050565b60006020820190508181036000830152611492816112e0565b9050919050565b600060208201905081810360008301526114b281611303565b9050919050565b600060208201905081810360008301526114d281611326565b9050919050565b600060208201905081810360008301526114f281611349565b9050919050565b600060208201905081810360008301526115128161136c565b9050919050565b600060208201905081810360008301526115328161138f565b9050919050565b600060208201905061154e60008301846113b2565b92915050565b600061155e61156f565b905061156a8282611715565b919050565b6000604051905090565b600067ffffffffffffffff821115611594576115936117be565b5b61159d826117ed565b9050602081019050919050565b600081519050919050565b600082825260208201905092915050565b60006115d1826116b4565b91506115dc836116b4565b9250827fffffffffffffffffffffffffffffffffffffffffffffffffffffffffffffffff038211156116115761161061178f565b5b828201905092915050565b6000611627826116b4565b9150611632836116b4565b9250817fffffffffffffffffffffffffffffffffffffffffffffffffffffffffffffffff048311821515161561166b5761166a61178f565b5b828202905092915050565b600061168182611694565b9050919050565b60008115159050919050565b600073ffffffffffffffffffffffffffffffffffffffff82169050919050565b6000819050919050565b60006116c9826116d0565b9050919050565b60006116db82611694565b9050919050565b60005b838110156117005780820151818401526020810190506116e5565b8381111561170f576000848401525b50505050565b61171e826117ed565b810181811067ffffffffffffffff8211171561173d5761173c6117be565b5b80604052505050565b6000611751826116b4565b91507fffffffffffffffffffffffffffffffffffffffffffffffffffffffffffffffff8214156117845761178361178f565b5b600182019050919050565b7f4e487b7100000000000000000000000000000000000000000000000000000000600052601160045260246000fd5b7f4e487b7100000000000000000000000000000000000000000000000000000000600052604160045260246000fd5b6000601f19601f8301169050919050565b7f4f776e61626c653a206e6577206f776e657220697320746865207a65726f206160008201527f6464726573730000000000000000000000000000000000000000000000000000602082015250565b7f6465706f73697420616d6f756e742073686f756c64206265206d6f726520746860008201527f616e203000000000000000000000000000000000000000000000000000000000602082015250565b7f4f776e61626c653a2063616c6c6572206973206e6f7420746865206f776e6572600082015250565b7f7472616e73666572206661696c65640000000000000000000000000000000000600082015250565b7f77726f6e67206465706f73697420696400000000000000000000000000000000600082015250565b7f5265656e7472616e637947756172643a207265656e7472616e742063616c6c00600082015250565b61194981611676565b811461195457600080fd5b50565b61196081611688565b811461196b57600080fd5b50565b611977816116b4565b811461198257600080fd5b5056fea2646970667358221220d55d9abe8dee0dcd6b4f3f427cabf7e10096fa83de5c793eabfd0ab3b32a272564736f6c63430008030033",
  "immutableReferences": {},
  "source": "//SPDX-License-Identifier: Unlicense\npragma solidity ^0.8.3;\n\nimport \"@openzeppelin/contracts/access/Ownable.sol\";\nimport \"@openzeppelin/contracts/utils/Address.sol\";\nimport \"@openzeppelin/contracts/utils/math/SafeMath.sol\";\nimport \"@openzeppelin/contracts/security/ReentrancyGuard.sol\";\nimport \"@openzeppelin/contracts/token/ERC20/IERC20.sol\";\nimport \"@openzeppelin/contracts/token/ERC20/ERC20.sol\";\nimport \"@openzeppelin/contracts/utils/Context.sol\";\n\n/**\n * Umi token staking\n */\ncontract UmiTokenFarm is Context, Ownable, ReentrancyGuard {\n\n    using Address for address;\n    using SafeMath for uint256;\n\n    // stake token\n    ERC20 public umiToken;\n\n    // The deposit balances of users(store address->(depositId->amount))\n    mapping(address => mapping(uint256 => uint256)) public balances;\n    // The dates of users' deposits(store address->(depositId->timestamp))\n    mapping(address => mapping(uint256 => uint256)) public depositDates;\n    // The dates of users' withdrawal requests\n    mapping(address => mapping(uint256 => uint256))\n        public withdrawalRequestsDates;\n    // The last deposit id(store address->last deposit id)\n    mapping(address => uint256) public lastDepositIds;\n    // The total staked amount\n    uint256 public totalStaked;\n\n    // APY (in percentage)\n    uint256 public apy = 1e17; // 10%, 0.1 ether\n    // one year\n    uint256 private constant YEAR = 365 days;\n\n    constructor(address _tokenAddress, uint256 _apy) {\n        require(\n            _tokenAddress.isContract(),\n            \"_tokenAddress is not a contract address\"\n        );\n        umiToken = ERC20(_tokenAddress);\n        apy = _apy;\n    }\n\n    /**\n     * get umi token address\n     */\n    function getUmiTokenAddress() public view returns (address) {\n        return address(umiToken);\n    }\n\n    /**\n     * get umi token name\n     */\n    function getUmiTokenName() public view returns (string memory) {\n        return umiToken.name();\n    }\n\n    /**\n     * get umi token symbol\n     */\n    function getUmiTokenSymbol() public view returns (string memory) {\n        return umiToken.symbol();\n    }\n\n    function getUmiTokenTotalSupply() public view returns (uint256) {\n        return umiToken.totalSupply();\n    }\n\n    /**\n     * get apy\n     */\n    function getApy() public view returns (uint256) {\n        return apy * 1e17;\n    }\n\n    function setLastDepositIds() public returns (uint256) {\n        return ++lastDepositIds[msg.sender];\n    }\n\n    function getLastDepositIds(address _address) public view returns (uint256) {\n        return lastDepositIds[_address];\n    }\n\n    function getBalanceOfAccount(address account)\n        public\n        view\n        returns (uint256)\n    {\n        return umiToken.balanceOf(account);\n    }\n\n    function deposit(uint256 _amount) public {\n        deposit(++lastDepositIds[msg.sender], _amount);\n    }\n\n    /**\n     * @dev This method is used to deposit tokens to the deposit opened before.\n     * It calls the internal \"_deposit\" method and transfers tokens from sender to contract.\n     * Sender must approve tokens first.\n     *\n     * Instead this, user can use the simple \"transfer\" method of STAKE token contract to make a deposit.\n     * Sender's approval is not needed in this case.\n     *\n     * Note: each call updates the deposit date so be careful if you want to make a long staking.\n     *\n     * @param _depositId User's unique deposit ID.\n     * @param _amount The amount to deposit.\n     */\n    function deposit(uint256 _depositId, uint256 _amount) public {\n        require(\n            _depositId > 0 && _depositId <= lastDepositIds[msg.sender],\n            \"wrong deposit id\"\n        );\n        _deposit(msg.sender, _depositId, _amount);\n        require(\n            umiToken.transferFrom(msg.sender, address(this), _amount),\n            \"transfer failed\"\n        );\n    }\n\n    /**\n     * @dev Calls internal \"_mint\" method, increases the user balance, and updates the deposit date.\n     * @param _sender The address of the sender.\n     * @param _id User's unique deposit ID.\n     * @param _amount The amount to deposit.\n     */\n    function _deposit(\n        address _sender,\n        uint256 _id,\n        uint256 _amount\n    ) internal nonReentrant {\n        require(_amount > 0, \"deposit amount should be more than 0\");\n        uint256 newBalance = balances[_sender][_id].add(_amount);\n        balances[_sender][_id] = newBalance;\n        totalStaked = totalStaked.add(_amount);\n        depositDates[_sender][_id] = _now();\n    }\n\n    /**\n     * @return Returns current timestamp.\n     */\n    function _now() internal view returns (uint256) {\n        // Note that the timestamp can have a 900-second error:\n        // https://github.com/ethereum/wiki/blob/c02254611f218f43cbb07517ca8e5d00fd6d6d75/Block-Protocol-2.0.md\n        return block.timestamp; // solium-disable-line security/no-block-members\n    }\n\n    function getContractBalance() public view returns (uint256) {\n        return address(this).balance;\n    }\n\n    function getTotalStaked() public view returns(uint256) {\n        return totalStaked;\n    }\n\n    function approve(address spender, uint256 _amount) public {\n        umiToken.approve(spender, _amount);\n    }\n\n}\n",
  "sourcePath": "/Users/liaiguo/nodeProjects/umi-project/src/contracts/UmiTokenFarm.sol",
  "compiler": {
    "name": "solc",
    "version": "0.8.3+commit.8d00100c.Emscripten.clang"
  },
  "schemaVersion": "3.3.4",
  "updatedAt": "2021-05-14T13:44:20.382Z",
  "networkType": "ethereum",
  "devdoc": {
    "kind": "dev",
    "methods": {
      "deposit(uint256,uint256)": {
        "details": "This method is used to deposit tokens to the deposit opened before. It calls the internal \"_deposit\" method and transfers tokens from sender to contract. Sender must approve tokens first. Instead this, user can use the simple \"transfer\" method of STAKE token contract to make a deposit. Sender's approval is not needed in this case. Note: each call updates the deposit date so be careful if you want to make a long staking.",
        "params": {
          "_amount": "The amount to deposit.",
          "_depositId": "User's unique deposit ID."
        }
      },
      "owner()": {
        "details": "Returns the address of the current owner."
      },
      "renounceOwnership()": {
        "details": "Leaves the contract without owner. It will not be possible to call `onlyOwner` functions anymore. Can only be called by the current owner. NOTE: Renouncing ownership will leave the contract without an owner, thereby removing any functionality that is only available to the owner."
      },
      "transferOwnership(address)": {
        "details": "Transfers ownership of the contract to a new account (`newOwner`). Can only be called by the current owner."
      }
    },
    "version": 1
  },
  "userdoc": {
    "kind": "user",
    "methods": {
      "getApy()": {
        "notice": "get apy"
      },
      "getUmiTokenAddress()": {
        "notice": "get umi token address"
      },
      "getUmiTokenName()": {
        "notice": "get umi token name"
      },
      "getUmiTokenSymbol()": {
        "notice": "get umi token symbol"
      }
    },
    "notice": "Umi token staking",
    "version": 1
  }
}